{
  "contractName": "DB",
  "abi": [
    {
      "constant": true,
      "inputs": [
        {
          "name": "",
          "type": "uint256"
        }
      ],
      "name": "permittedContractsAddresses",
      "outputs": [
        {
          "name": "",
          "type": "address"
        }
      ],
      "payable": false,
      "stateMutability": "view",
      "type": "function"
    },
    {
      "constant": false,
      "inputs": [],
      "name": "destroy",
      "outputs": [],
      "payable": false,
      "stateMutability": "nonpayable",
      "type": "function"
    },
    {
      "constant": true,
      "inputs": [],
      "name": "owner",
      "outputs": [
        {
          "name": "",
          "type": "address"
        }
      ],
      "payable": false,
      "stateMutability": "view",
      "type": "function"
    },
    {
      "constant": true,
      "inputs": [
        {
          "name": "",
          "type": "address"
        }
      ],
      "name": "permissionStatusForContract",
      "outputs": [
        {
          "name": "",
          "type": "bool"
        }
      ],
      "payable": false,
      "stateMutability": "view",
      "type": "function"
    },
    {
      "constant": false,
      "inputs": [
        {
          "name": "newOwner",
          "type": "address"
        }
      ],
      "name": "transferOwnership",
      "outputs": [],
      "payable": false,
      "stateMutability": "nonpayable",
      "type": "function"
    },
    {
      "constant": false,
      "inputs": [
        {
          "name": "_recipient",
          "type": "address"
        }
      ],
      "name": "destroyAndSend",
      "outputs": [],
      "payable": false,
      "stateMutability": "nonpayable",
      "type": "function"
    },
    {
      "inputs": [],
      "payable": false,
      "stateMutability": "nonpayable",
      "type": "constructor"
    },
    {
      "constant": true,
      "inputs": [
        {
          "name": "recordFieldName",
          "type": "bytes32"
        }
      ],
      "name": "getAddressValue",
      "outputs": [
        {
          "name": "",
          "type": "address"
        }
      ],
      "payable": false,
      "stateMutability": "view",
      "type": "function"
    },
    {
      "constant": false,
      "inputs": [
        {
          "name": "recordFieldName",
          "type": "bytes32"
        },
        {
          "name": "value",
          "type": "address"
        }
      ],
      "name": "setAddressValue",
      "outputs": [],
      "payable": false,
      "stateMutability": "nonpayable",
      "type": "function"
    },
    {
      "constant": false,
      "inputs": [
        {
          "name": "recordFieldName",
          "type": "bytes32"
        }
      ],
      "name": "deleteAddressValue",
      "outputs": [],
      "payable": false,
      "stateMutability": "nonpayable",
      "type": "function"
    },
    {
      "constant": true,
      "inputs": [
        {
          "name": "recordFieldName",
          "type": "bytes32"
        }
      ],
      "name": "getBoolValue",
      "outputs": [
        {
          "name": "",
          "type": "bool"
        }
      ],
      "payable": false,
      "stateMutability": "view",
      "type": "function"
    },
    {
      "constant": false,
      "inputs": [
        {
          "name": "recordFieldName",
          "type": "bytes32"
        },
        {
          "name": "value",
          "type": "bool"
        }
      ],
      "name": "setBoolValue",
      "outputs": [],
      "payable": false,
      "stateMutability": "nonpayable",
      "type": "function"
    },
    {
      "constant": false,
      "inputs": [
        {
          "name": "recordFieldName",
          "type": "bytes32"
        }
      ],
      "name": "deleteBoolValue",
      "outputs": [],
      "payable": false,
      "stateMutability": "nonpayable",
      "type": "function"
    },
    {
      "constant": true,
      "inputs": [
        {
          "name": "recordFieldName",
          "type": "bytes32"
        }
      ],
      "name": "getBytesValue",
      "outputs": [
        {
          "name": "",
          "type": "bytes"
        }
      ],
      "payable": false,
      "stateMutability": "view",
      "type": "function"
    },
    {
      "constant": false,
      "inputs": [
        {
          "name": "recordFieldName",
          "type": "bytes32"
        },
        {
          "name": "value",
          "type": "bytes"
        }
      ],
      "name": "setBytesValue",
      "outputs": [],
      "payable": false,
      "stateMutability": "nonpayable",
      "type": "function"
    },
    {
      "constant": false,
      "inputs": [
        {
          "name": "recordFieldName",
          "type": "bytes32"
        }
      ],
      "name": "deleteBytesValue",
      "outputs": [],
      "payable": false,
      "stateMutability": "nonpayable",
      "type": "function"
    },
    {
      "constant": true,
      "inputs": [
        {
          "name": "recordFieldName",
          "type": "bytes32"
        }
      ],
      "name": "getBytes32Value",
      "outputs": [
        {
          "name": "",
          "type": "bytes32"
        }
      ],
      "payable": false,
      "stateMutability": "view",
      "type": "function"
    },
    {
      "constant": false,
      "inputs": [
        {
          "name": "recordFieldName",
          "type": "bytes32"
        },
        {
          "name": "value",
          "type": "bytes32"
        }
      ],
      "name": "setBytes32Value",
      "outputs": [],
      "payable": false,
      "stateMutability": "nonpayable",
      "type": "function"
    },
    {
      "constant": false,
      "inputs": [
        {
          "name": "recordFieldName",
          "type": "bytes32"
        }
      ],
      "name": "deleteBytes32Value",
      "outputs": [],
      "payable": false,
      "stateMutability": "nonpayable",
      "type": "function"
    },
    {
      "constant": true,
      "inputs": [
        {
          "name": "recordFieldName",
          "type": "bytes32"
        }
      ],
      "name": "getIntValue",
      "outputs": [
        {
          "name": "",
          "type": "int256"
        }
      ],
      "payable": false,
      "stateMutability": "view",
      "type": "function"
    },
    {
      "constant": false,
      "inputs": [
        {
          "name": "recordFieldName",
          "type": "bytes32"
        },
        {
          "name": "value",
          "type": "int256"
        }
      ],
      "name": "setIntValue",
      "outputs": [],
      "payable": false,
      "stateMutability": "nonpayable",
      "type": "function"
    },
    {
      "constant": false,
      "inputs": [
        {
          "name": "recordFieldName",
          "type": "bytes32"
        }
      ],
      "name": "deleteIntValue",
      "outputs": [],
      "payable": false,
      "stateMutability": "nonpayable",
      "type": "function"
    },
    {
      "constant": true,
      "inputs": [
        {
          "name": "recordFieldName",
          "type": "bytes32"
        }
      ],
      "name": "getUIntValue",
      "outputs": [
        {
          "name": "",
          "type": "uint256"
        }
      ],
      "payable": false,
      "stateMutability": "view",
      "type": "function"
    },
    {
      "constant": false,
      "inputs": [
        {
          "name": "recordFieldName",
          "type": "bytes32"
        },
        {
          "name": "value",
          "type": "uint256"
        }
      ],
      "name": "setUIntValue",
      "outputs": [],
      "payable": false,
      "stateMutability": "nonpayable",
      "type": "function"
    },
    {
      "constant": false,
      "inputs": [
        {
          "name": "recordFieldName",
          "type": "bytes32"
        },
        {
          "name": "value",
          "type": "uint256"
        }
      ],
      "name": "addUIntValue",
      "outputs": [],
      "payable": false,
      "stateMutability": "nonpayable",
      "type": "function"
    },
    {
      "constant": false,
      "inputs": [
        {
          "name": "recordFieldName",
          "type": "bytes32"
        },
        {
          "name": "value",
          "type": "uint256"
        }
      ],
      "name": "subUIntValue",
      "outputs": [],
      "payable": false,
      "stateMutability": "nonpayable",
      "type": "function"
    },
    {
      "constant": false,
      "inputs": [
        {
          "name": "recordFieldName",
          "type": "bytes32"
        }
      ],
      "name": "deleteUIntValue",
      "outputs": [],
      "payable": false,
      "stateMutability": "nonpayable",
      "type": "function"
    },
    {
      "constant": true,
      "inputs": [
        {
          "name": "recordFieldName",
          "type": "bytes32"
        }
      ],
      "name": "getUInt8Value",
      "outputs": [
        {
          "name": "",
          "type": "uint8"
        }
      ],
      "payable": false,
      "stateMutability": "view",
      "type": "function"
    },
    {
      "constant": false,
      "inputs": [
        {
          "name": "recordFieldName",
          "type": "bytes32"
        },
        {
          "name": "value",
          "type": "uint8"
        }
      ],
      "name": "setUInt8Value",
      "outputs": [],
      "payable": false,
      "stateMutability": "nonpayable",
      "type": "function"
    },
    {
      "constant": false,
      "inputs": [
        {
          "name": "recordFieldName",
          "type": "bytes32"
        }
      ],
      "name": "deleteUInt8Value",
      "outputs": [],
      "payable": false,
      "stateMutability": "nonpayable",
      "type": "function"
    },
    {
      "constant": true,
      "inputs": [
        {
          "name": "recordFieldName",
          "type": "bytes32"
        }
      ],
      "name": "getStringValue",
      "outputs": [
        {
          "name": "",
          "type": "string"
        }
      ],
      "payable": false,
      "stateMutability": "view",
      "type": "function"
    },
    {
      "constant": false,
      "inputs": [
        {
          "name": "recordFieldName",
          "type": "bytes32"
        },
        {
          "name": "value",
          "type": "string"
        }
      ],
      "name": "setStringValue",
      "outputs": [],
      "payable": false,
      "stateMutability": "nonpayable",
      "type": "function"
    },
    {
      "constant": false,
      "inputs": [
        {
          "name": "recordFieldName",
          "type": "bytes32"
        }
      ],
      "name": "deleteStringValue",
      "outputs": [],
      "payable": false,
      "stateMutability": "nonpayable",
      "type": "function"
    },
    {
      "constant": false,
      "inputs": [
        {
          "name": "contractAddress",
          "type": "address"
        }
      ],
      "name": "addPermittedContract",
      "outputs": [],
      "payable": false,
      "stateMutability": "nonpayable",
      "type": "function"
    },
    {
      "constant": false,
      "inputs": [
        {
          "name": "addresses",
          "type": "address[]"
        }
      ],
      "name": "addPermittedContracts",
      "outputs": [],
      "payable": false,
      "stateMutability": "nonpayable",
      "type": "function"
    },
    {
      "constant": false,
      "inputs": [
        {
          "name": "addresses",
          "type": "address"
        }
      ],
      "name": "removePermittedContract",
      "outputs": [],
      "payable": false,
      "stateMutability": "nonpayable",
      "type": "function"
    },
    {
      "constant": false,
      "inputs": [
        {
          "name": "addresses",
          "type": "address[]"
        }
      ],
      "name": "removePermittedContracts",
      "outputs": [],
      "payable": false,
      "stateMutability": "nonpayable",
      "type": "function"
    },
    {
      "constant": true,
      "inputs": [],
      "name": "permittedContractsCount",
      "outputs": [
        {
          "name": "count",
          "type": "uint256"
        }
      ],
      "payable": false,
      "stateMutability": "view",
      "type": "function"
    },
    {
      "constant": true,
      "inputs": [],
      "name": "getPermittedContracts",
      "outputs": [
        {
          "name": "addresses",
          "type": "address[]"
        }
      ],
      "payable": false,
      "stateMutability": "view",
      "type": "function"
    },
    {
      "constant": true,
      "inputs": [
        {
          "name": "recordFieldNames",
          "type": "bytes32[]"
        },
        {
          "name": "recordFieldTypes",
          "type": "uint8[]"
        }
      ],
      "name": "getObjectData",
      "outputs": [
        {
          "name": "items",
          "type": "uint256[]"
        },
        {
          "name": "strings",
          "type": "string"
        }
      ],
      "payable": false,
      "stateMutability": "view",
      "type": "function"
    },
    {
      "constant": true,
      "inputs": [
        {
          "name": "recordFieldTypes",
          "type": "uint8[]"
        }
      ],
      "name": "getCountOfIntegerTypes",
      "outputs": [
        {
          "name": "count",
          "type": "uint256"
        }
      ],
      "payable": false,
      "stateMutability": "pure",
      "type": "function"
    },
    {
      "constant": true,
      "inputs": [
        {
          "name": "recordFieldName",
          "type": "bytes32"
        },
        {
          "name": "uintType",
          "type": "uint8"
        }
      ],
      "name": "getCorrespondingIntegerValue",
      "outputs": [
        {
          "name": "",
          "type": "uint256"
        }
      ],
      "payable": false,
      "stateMutability": "view",
      "type": "function"
    },
    {
      "constant": true,
      "inputs": [
        {
          "name": "logicEntry",
          "type": "bool"
        }
      ],
      "name": "boolToUInt",
      "outputs": [
        {
          "name": "",
          "type": "uint256"
        }
      ],
      "payable": false,
      "stateMutability": "pure",
      "type": "function"
    }
  ],
  "bytecode": "0x608060405234801561001057600080fd5b50336000806101000a81548173ffffffffffffffffffffffffffffffffffffffff021916908373ffffffffffffffffffffffffffffffffffffffff160217905550613168806100606000396000f300608060405260043610610203576000357c0100000000000000000000000000000000000000000000000000000000900463ffffffff168062a35aa214610208578063025ec81a14610239578063043106c0146102865780630489fa70146102b75780630bd85158146102f25780630c55d92514610330578063124f24181461036157806325cf512d1461039257806326df61f6146103d15780633138ee5c146103fc5780633562fd20146104685780633836fe6e146104a357806344bfa56e146104e65780634c77e5ba14610590578063506d7d001461060157806352d2d83d146106535780635a2bf25a146106905780636aebbbd9146106e15780636d38156f1461071c57806373fb35ee146107965780637a0e03ec146108035780638267a9ee1461084e57806382914e5d1461087f57806383197ef01461099357806384d7c99d146109aa5780638da5cb5b146109db5780638ffa969014610a325780639007127b14610a7b57806393fe424814610ac05780639420e58d14610af1578063a209a29c14610b4c578063a77aa49e14610bf6578063a98ad19914610c31578063ba69fcaa14610c74578063bdc963d814610ca5578063c8d1c01714610cea578063c9a52d2c14610d25578063dc02511e14610d6e578063f2fde38b14610da9578063f5074f4114610dec578063f586606614610e2f578063ffbd400b14610e78575b600080fd5b34801561021457600080fd5b506102376004803603810190808035600019169060200190929190505050610ebb565b005b34801561024557600080fd5b506102686004803603810190808035600019169060200190929190505050610f98565b60405180826000191660001916815260200191505060405180910390f35b34801561029257600080fd5b506102b56004803603810190808035600019169060200190929190505050610fbd565b005b3480156102c357600080fd5b506102f06004803603810190808035906020019082018035906020019190919293919293905050506110ad565b005b3480156102fe57600080fd5b5061032e6004803603810190808035600019169060200190929190803560ff1690602001909291905050506111ae565b005b34801561033c57600080fd5b5061035f6004803603810190808035600019169060200190929190505050611295565b005b34801561036d57600080fd5b50610390600480360381019080803560001916906020019092919050505061136e565b005b34801561039e57600080fd5b506103cf6004803603810190808035600019169060200190929190803560001916906020019092919050505061143f565b005b3480156103dd57600080fd5b506103e6611516565b6040518082815260200191505060405180910390f35b34801561040857600080fd5b506104116115d3565b6040518080602001828103825283818151815260200191508051906020019060200280838360005b83811015610454578082015181840152602081019050610439565b505050509050019250505060405180910390f35b34801561047457600080fd5b506104a1600480360381019080803560001916906020019092919080359060200190929190505050611746565b005b3480156104af57600080fd5b506104e4600480360381019080803573ffffffffffffffffffffffffffffffffffffffff169060200190929190505050611819565b005b3480156104f257600080fd5b506105156004803603810190808035600019169060200190929190505050611935565b6040518080602001828103825283818151815260200191508051906020019080838360005b8381101561055557808201518184015260208101905061053a565b50505050905090810190601f1680156105825780820380516001836020036101000a031916815260200191505b509250505060405180910390f35b34801561059c57600080fd5b506105bf60048036038101908080356000191690602001909291905050506119f2565b604051808273ffffffffffffffffffffffffffffffffffffffff1673ffffffffffffffffffffffffffffffffffffffff16815260200191505060405180910390f35b34801561060d57600080fd5b5061063d6004803603810190808035600019169060200190929190803560ff169060200190929190505050611a37565b6040518082815260200191505060405180910390f35b34801561065f57600080fd5b5061068e6004803603810190808035600019169060200190929190803515159060200190929190505050611afc565b005b34801561069c57600080fd5b506106df6004803603810190808035600019169060200190929190803573ffffffffffffffffffffffffffffffffffffffff169060200190929190505050611be2565b005b3480156106ed57600080fd5b5061071a600480360381019080803560001916906020019092919080359060200190929190505050611cef565b005b34801561072857600080fd5b5061078060048036038101908080359060200190820180359060200190808060200260200160405190810160405280939291908181526020018383602002808284378201915050505050509192919290505050611de6565b6040518082815260200191505060405180910390f35b3480156107a257600080fd5b506107c160048036038101908080359060200190929190505050611e3c565b604051808273ffffffffffffffffffffffffffffffffffffffff1673ffffffffffffffffffffffffffffffffffffffff16815260200191505060405180910390f35b34801561080f57600080fd5b506108326004803603810190808035600019169060200190929190505050611e7a565b604051808260ff1660ff16815260200191505060405180910390f35b34801561085a57600080fd5b5061087d6004803603810190808035600019169060200190929190505050611eac565b005b34801561088b57600080fd5b506108d0600480360381019080803590602001908201803590602001919091929391929390803590602001908201803590602001919091929391929390505050611f7d565b604051808060200180602001838103835285818151815260200191508051906020019060200280838360005b838110156109175780820151818401526020810190506108fc565b50505050905001838103825284818151815260200191508051906020019080838360005b8381101561095657808201518184015260208101905061093b565b50505050905090810190601f1680156109835780820380516001836020036101000a031916815260200191505b5094505050505060405180910390f35b34801561099f57600080fd5b506109a86121e0565b005b3480156109b657600080fd5b506109d96004803603810190808035600019169060200190929190505050612275565b005b3480156109e757600080fd5b506109f0612352565b604051808273ffffffffffffffffffffffffffffffffffffffff1673ffffffffffffffffffffffffffffffffffffffff16815260200191505060405180910390f35b348015610a3e57600080fd5b50610a616004803603810190808035600019169060200190929190505050612377565b604051808215151515815260200191505060405180910390f35b348015610a8757600080fd5b50610aaa60048036038101908080356000191690602001909291905050506123a9565b6040518082815260200191505060405180910390f35b348015610acc57600080fd5b50610aef60048036038101908080356000191690602001909291905050506123ce565b005b348015610afd57600080fd5b50610b32600480360381019080803573ffffffffffffffffffffffffffffffffffffffff16906020019092919050505061249f565b604051808215151515815260200191505060405180910390f35b348015610b5857600080fd5b50610b7b60048036038101908080356000191690602001909291905050506124bf565b6040518080602001828103825283818151815260200191508051906020019080838360005b83811015610bbb578082015181840152602081019050610ba0565b50505050905090810190601f168015610be85780820380516001836020036101000a031916815260200191505b509250505060405180910390f35b348015610c0257600080fd5b50610c2f60048036038101908080356000191690602001909291908035906020019092919050505061257c565b005b348015610c3d57600080fd5b50610c72600480360381019080803573ffffffffffffffffffffffffffffffffffffffff16906020019092919050505061264f565b005b348015610c8057600080fd5b50610ca36004803603810190808035600019169060200190929190505050612705565b005b348015610cb157600080fd5b50610cd460048036038101908080356000191690602001909291905050506127de565b6040518082815260200191505060405180910390f35b348015610cf657600080fd5b50610d23600480360381019080803560001916906020019092919080359060200190929190505050612803565b005b348015610d3157600080fd5b50610d6c60048036038101908080356000191690602001909291908035906020019082018035906020019190919293919293905050506128fa565b005b348015610d7a57600080fd5b50610da76004803603810190808035906020019082018035906020019190919293919293905050506129d9565b005b348015610db557600080fd5b50610dea600480360381019080803573ffffffffffffffffffffffffffffffffffffffff169060200190929190505050612b6a565b005b348015610df857600080fd5b50610e2d600480360381019080803573ffffffffffffffffffffffffffffffffffffffff169060200190929190505050612c3f565b005b348015610e3b57600080fd5b50610e766004803603810190808035600019169060200190929190803590602001908201803590602001919091929391929390505050612cb3565b005b348015610e8457600080fd5b50610ea5600480360381019080803515159060200190929190505050612e20565b6040518082815260200191505060405180910390f35b600260003373ffffffffffffffffffffffffffffffffffffffff1673ffffffffffffffffffffffffffffffffffffffff16815260200190815260200160002060009054906101000a900460ff1680610f5f57506000809054906101000a900473ffffffffffffffffffffffffffffffffffffffff1673ffffffffffffffffffffffffffffffffffffffff163373ffffffffffffffffffffffffffffffffffffffff16145b1515610f6a57600080fd5b60046000826000191660001916815260200190815260200160002060006101000a81549060ff021916905550565b6000600660008360001916600019168152602001908152602001600020549050919050565b600260003373ffffffffffffffffffffffffffffffffffffffff1673ffffffffffffffffffffffffffffffffffffffff16815260200190815260200160002060009054906101000a900460ff168061106157506000809054906101000a900473ffffffffffffffffffffffffffffffffffffffff1673ffffffffffffffffffffffffffffffffffffffff163373ffffffffffffffffffffffffffffffffffffffff16145b151561106c57600080fd5b60036000826000191660001916815260200190815260200160002060006101000a81549073ffffffffffffffffffffffffffffffffffffffff021916905550565b60008060009054906101000a900473ffffffffffffffffffffffffffffffffffffffff1673ffffffffffffffffffffffffffffffffffffffff163373ffffffffffffffffffffffffffffffffffffffff1614151561110a57600080fd5b600090505b828290508110156111a957600060026000858585818110151561112e57fe5b9050602002013573ffffffffffffffffffffffffffffffffffffffff1673ffffffffffffffffffffffffffffffffffffffff1673ffffffffffffffffffffffffffffffffffffffff16815260200190815260200160002060006101000a81548160ff021916908315150217905550808060010191505061110f565b505050565b600260003373ffffffffffffffffffffffffffffffffffffffff1673ffffffffffffffffffffffffffffffffffffffff16815260200190815260200160002060009054906101000a900460ff168061125257506000809054906101000a900473ffffffffffffffffffffffffffffffffffffffff1673ffffffffffffffffffffffffffffffffffffffff163373ffffffffffffffffffffffffffffffffffffffff16145b151561125d57600080fd5b8060096000846000191660001916815260200190815260200160002060006101000a81548160ff021916908360ff1602179055505050565b600260003373ffffffffffffffffffffffffffffffffffffffff1673ffffffffffffffffffffffffffffffffffffffff16815260200190815260200160002060009054906101000a900460ff168061133957506000809054906101000a900473ffffffffffffffffffffffffffffffffffffffff1673ffffffffffffffffffffffffffffffffffffffff163373ffffffffffffffffffffffffffffffffffffffff16145b151561134457600080fd5b600560008260001916600019168152602001908152602001600020600061136b9190612f6d565b50565b600260003373ffffffffffffffffffffffffffffffffffffffff1673ffffffffffffffffffffffffffffffffffffffff16815260200190815260200160002060009054906101000a900460ff168061141257506000809054906101000a900473ffffffffffffffffffffffffffffffffffffffff1673ffffffffffffffffffffffffffffffffffffffff163373ffffffffffffffffffffffffffffffffffffffff16145b151561141d57600080fd5b6006600082600019166000191681526020019081526020016000206000905550565b600260003373ffffffffffffffffffffffffffffffffffffffff1673ffffffffffffffffffffffffffffffffffffffff16815260200190815260200160002060009054906101000a900460ff16806114e357506000809054906101000a900473ffffffffffffffffffffffffffffffffffffffff1673ffffffffffffffffffffffffffffffffffffffff163373ffffffffffffffffffffffffffffffffffffffff16145b15156114ee57600080fd5b8060066000846000191660001916815260200190815260200160002081600019169055505050565b600080600090505b6001805490508110156115cc576002600060018381548110151561153e57fe5b9060005260206000200160009054906101000a900473ffffffffffffffffffffffffffffffffffffffff1673ffffffffffffffffffffffffffffffffffffffff1673ffffffffffffffffffffffffffffffffffffffff16815260200190815260200160002060009054906101000a900460ff16156115bf5781806001019250505b808060010191505061151e565b8191505090565b606060006115df611516565b60405190808252806020026020018201604052801561160d5781602001602082028038833980820191505090505b509150600090505b60018054905081101561173f576002600060018381548110151561163557fe5b9060005260206000200160009054906101000a900473ffffffffffffffffffffffffffffffffffffffff1673ffffffffffffffffffffffffffffffffffffffff1673ffffffffffffffffffffffffffffffffffffffff16815260200190815260200160002060009054906101000a900460ff1615611732576001818154811015156116bc57fe5b9060005260206000200160009054906101000a900473ffffffffffffffffffffffffffffffffffffffff1682828151811015156116f557fe5b9060200190602002019073ffffffffffffffffffffffffffffffffffffffff16908173ffffffffffffffffffffffffffffffffffffffff16815250505b8080600101915050611615565b8191505090565b600260003373ffffffffffffffffffffffffffffffffffffffff1673ffffffffffffffffffffffffffffffffffffffff16815260200190815260200160002060009054906101000a900460ff16806117ea57506000809054906101000a900473ffffffffffffffffffffffffffffffffffffffff1673ffffffffffffffffffffffffffffffffffffffff163373ffffffffffffffffffffffffffffffffffffffff16145b15156117f557600080fd5b80600860008460001916600019168152602001908152602001600020819055505050565b6000809054906101000a900473ffffffffffffffffffffffffffffffffffffffff1673ffffffffffffffffffffffffffffffffffffffff163373ffffffffffffffffffffffffffffffffffffffff1614151561187457600080fd5b6001600260008373ffffffffffffffffffffffffffffffffffffffff1673ffffffffffffffffffffffffffffffffffffffff16815260200190815260200160002060006101000a81548160ff02191690831515021790555060018190806001815401808255809150509060018203906000526020600020016000909192909190916101000a81548173ffffffffffffffffffffffffffffffffffffffff021916908373ffffffffffffffffffffffffffffffffffffffff1602179055505050565b60606005600083600019166000191681526020019081526020016000208054600181600116156101000203166002900480601f0160208091040260200160405190810160405280929190818152602001828054600181600116156101000203166002900480156119e65780601f106119bb576101008083540402835291602001916119e6565b820191906000526020600020905b8154815290600101906020018083116119c957829003601f168201915b50505050509050919050565b600060036000836000191660001916815260200190815260200160002060009054906101000a900473ffffffffffffffffffffffffffffffffffffffff169050919050565b600060018260ff161415611a5d57611a56611a5184612377565b612e20565b9050611af6565b60028260ff161415611a7c57611a7283611e7a565b60ff169050611af6565b60038260ff161415611a9857611a91836127de565b9050611af6565b60048260ff161415611ad157611aad836119f2565b73ffffffffffffffffffffffffffffffffffffffff16600102600190049050611af6565b60058260ff161415611af157611ae683610f98565b600190049050611af6565b600090505b92915050565b600260003373ffffffffffffffffffffffffffffffffffffffff1673ffffffffffffffffffffffffffffffffffffffff16815260200190815260200160002060009054906101000a900460ff1680611ba057506000809054906101000a900473ffffffffffffffffffffffffffffffffffffffff1673ffffffffffffffffffffffffffffffffffffffff163373ffffffffffffffffffffffffffffffffffffffff16145b1515611bab57600080fd5b8060046000846000191660001916815260200190815260200160002060006101000a81548160ff0219169083151502179055505050565b600260003373ffffffffffffffffffffffffffffffffffffffff1673ffffffffffffffffffffffffffffffffffffffff16815260200190815260200160002060009054906101000a900460ff1680611c8657506000809054906101000a900473ffffffffffffffffffffffffffffffffffffffff1673ffffffffffffffffffffffffffffffffffffffff163373ffffffffffffffffffffffffffffffffffffffff16145b1515611c9157600080fd5b8060036000846000191660001916815260200190815260200160002060006101000a81548173ffffffffffffffffffffffffffffffffffffffff021916908373ffffffffffffffffffffffffffffffffffffffff1602179055505050565b600260003373ffffffffffffffffffffffffffffffffffffffff1673ffffffffffffffffffffffffffffffffffffffff16815260200190815260200160002060009054906101000a900460ff1680611d9357506000809054906101000a900473ffffffffffffffffffffffffffffffffffffffff1673ffffffffffffffffffffffffffffffffffffffff163373ffffffffffffffffffffffffffffffffffffffff16145b1515611d9e57600080fd5b611dc36008600084600019166000191681526020019081526020016000205482612e3b565b600860008460001916600019168152602001908152602001600020819055505050565b60008060009150600090505b8251811015611e335760078382815181101515611e0b57fe5b9060200190602002015160ff16141515611e26576001820191505b8080600101915050611df2565b81915050919050565b600181815481101515611e4b57fe5b906000526020600020016000915054906101000a900473ffffffffffffffffffffffffffffffffffffffff1681565b600060096000836000191660001916815260200190815260200160002060009054906101000a900460ff169050919050565b600260003373ffffffffffffffffffffffffffffffffffffffff1673ffffffffffffffffffffffffffffffffffffffff16815260200190815260200160002060009054906101000a900460ff1680611f5057506000809054906101000a900473ffffffffffffffffffffffffffffffffffffffff1673ffffffffffffffffffffffffffffffffffffffff163373ffffffffffffffffffffffffffffffffffffffff16145b1515611f5b57600080fd5b6007600082600019166000191681526020019081526020016000206000905550565b606080600080600080600080611fc18a8a80806020026020016040519081016040528093929190818152602001838360200280828437820191505050505050611de6565b9550898990508c8c9050811515611fd457fe5b0494508585026040519080825280602002602001820160405280156120085781602001602082028038833980820191505090505b509750600092505b848310156121cb57600091505b8989905082101561216457818a8a9050840201905060078a8a84818110151561204257fe5b9050602002013560ff1660ff1614156120f95761209861208161207c8e8e85818110151561206c57fe5b90506020020135600019166124bf565b612e54565b61208a89612e54565b612e8290919063ffffffff16565b96506120f26120db6040805190810160405280601181526020017f3636362d2d4554482d5655452d2d363636000000000000000000000000000000815250612e54565b6120e489612e54565b612e8290919063ffffffff16565b9650612157565b6121328c8c83818110151561210a57fe5b90506020020135600019168b8b85818110151561212357fe5b9050602002013560ff16611a37565b888581518110151561214057fe5b906020019060200201818152505083806001019450505b818060010192505061201d565b6121bc6121a56040805190810160405280601681526020017f3636362d2d4554482d5655452d4c4953542d2d36363600000000000000000000815250612e54565b6121ae89612e54565b612e8290919063ffffffff16565b96508280600101935050612010565b87879750975050505050505094509492505050565b6000809054906101000a900473ffffffffffffffffffffffffffffffffffffffff1673ffffffffffffffffffffffffffffffffffffffff163373ffffffffffffffffffffffffffffffffffffffff1614151561223b57600080fd5b6000809054906101000a900473ffffffffffffffffffffffffffffffffffffffff1673ffffffffffffffffffffffffffffffffffffffff16ff5b600260003373ffffffffffffffffffffffffffffffffffffffff1673ffffffffffffffffffffffffffffffffffffffff16815260200190815260200160002060009054906101000a900460ff168061231957506000809054906101000a900473ffffffffffffffffffffffffffffffffffffffff1673ffffffffffffffffffffffffffffffffffffffff163373ffffffffffffffffffffffffffffffffffffffff16145b151561232457600080fd5b60096000826000191660001916815260200190815260200160002060006101000a81549060ff021916905550565b6000809054906101000a900473ffffffffffffffffffffffffffffffffffffffff1681565b600060046000836000191660001916815260200190815260200160002060009054906101000a900460ff169050919050565b6000600760008360001916600019168152602001908152602001600020549050919050565b600260003373ffffffffffffffffffffffffffffffffffffffff1673ffffffffffffffffffffffffffffffffffffffff16815260200190815260200160002060009054906101000a900460ff168061247257506000809054906101000a900473ffffffffffffffffffffffffffffffffffffffff1673ffffffffffffffffffffffffffffffffffffffff163373ffffffffffffffffffffffffffffffffffffffff16145b151561247d57600080fd5b6008600082600019166000191681526020019081526020016000206000905550565b60026020528060005260406000206000915054906101000a900460ff1681565b6060600a600083600019166000191681526020019081526020016000208054600181600116156101000203166002900480601f0160208091040260200160405190810160405280929190818152602001828054600181600116156101000203166002900480156125705780601f1061254557610100808354040283529160200191612570565b820191906000526020600020905b81548152906001019060200180831161255357829003601f168201915b50505050509050919050565b600260003373ffffffffffffffffffffffffffffffffffffffff1673ffffffffffffffffffffffffffffffffffffffff16815260200190815260200160002060009054906101000a900460ff168061262057506000809054906101000a900473ffffffffffffffffffffffffffffffffffffffff1673ffffffffffffffffffffffffffffffffffffffff163373ffffffffffffffffffffffffffffffffffffffff16145b151561262b57600080fd5b80600760008460001916600019168152602001908152602001600020819055505050565b6000809054906101000a900473ffffffffffffffffffffffffffffffffffffffff1673ffffffffffffffffffffffffffffffffffffffff163373ffffffffffffffffffffffffffffffffffffffff161415156126aa57600080fd5b6000600260008373ffffffffffffffffffffffffffffffffffffffff1673ffffffffffffffffffffffffffffffffffffffff16815260200190815260200160002060006101000a81548160ff02191690831515021790555050565b600260003373ffffffffffffffffffffffffffffffffffffffff1673ffffffffffffffffffffffffffffffffffffffff16815260200190815260200160002060009054906101000a900460ff16806127a957506000809054906101000a900473ffffffffffffffffffffffffffffffffffffffff1673ffffffffffffffffffffffffffffffffffffffff163373ffffffffffffffffffffffffffffffffffffffff16145b15156127b457600080fd5b600a6000826000191660001916815260200190815260200160002060006127db9190612fb5565b50565b6000600860008360001916600019168152602001908152602001600020549050919050565b600260003373ffffffffffffffffffffffffffffffffffffffff1673ffffffffffffffffffffffffffffffffffffffff16815260200190815260200160002060009054906101000a900460ff16806128a757506000809054906101000a900473ffffffffffffffffffffffffffffffffffffffff1673ffffffffffffffffffffffffffffffffffffffff163373ffffffffffffffffffffffffffffffffffffffff16145b15156128b257600080fd5b6128d76008600084600019166000191681526020019081526020016000205482612f04565b600860008460001916600019168152602001908152602001600020819055505050565b600260003373ffffffffffffffffffffffffffffffffffffffff1673ffffffffffffffffffffffffffffffffffffffff16815260200190815260200160002060009054906101000a900460ff168061299e57506000809054906101000a900473ffffffffffffffffffffffffffffffffffffffff1673ffffffffffffffffffffffffffffffffffffffff163373ffffffffffffffffffffffffffffffffffffffff16145b15156129a957600080fd5b818160056000866000191660001916815260200190815260200160002091906129d3929190612ffd565b50505050565b60008060009054906101000a900473ffffffffffffffffffffffffffffffffffffffff1673ffffffffffffffffffffffffffffffffffffffff163373ffffffffffffffffffffffffffffffffffffffff16141515612a3657600080fd5b600090505b82829050811015612b65576001600260008585858181101515612a5a57fe5b9050602002013573ffffffffffffffffffffffffffffffffffffffff1673ffffffffffffffffffffffffffffffffffffffff1673ffffffffffffffffffffffffffffffffffffffff16815260200190815260200160002060006101000a81548160ff02191690831515021790555060018383838181101515612ad857fe5b9050602002013573ffffffffffffffffffffffffffffffffffffffff1690806001815401808255809150509060018203906000526020600020016000909192909190916101000a81548173ffffffffffffffffffffffffffffffffffffffff021916908373ffffffffffffffffffffffffffffffffffffffff160217905550508080600101915050612a3b565b505050565b6000809054906101000a900473ffffffffffffffffffffffffffffffffffffffff1673ffffffffffffffffffffffffffffffffffffffff163373ffffffffffffffffffffffffffffffffffffffff16141515612bc557600080fd5b600073ffffffffffffffffffffffffffffffffffffffff168173ffffffffffffffffffffffffffffffffffffffff16141515612c3c57806000806101000a81548173ffffffffffffffffffffffffffffffffffffffff021916908373ffffffffffffffffffffffffffffffffffffffff1602179055505b50565b6000809054906101000a900473ffffffffffffffffffffffffffffffffffffffff1673ffffffffffffffffffffffffffffffffffffffff163373ffffffffffffffffffffffffffffffffffffffff16141515612c9a57600080fd5b8073ffffffffffffffffffffffffffffffffffffffff16ff5b600260003373ffffffffffffffffffffffffffffffffffffffff1673ffffffffffffffffffffffffffffffffffffffff16815260200190815260200160002060009054906101000a900460ff1680612d5757506000809054906101000a900473ffffffffffffffffffffffffffffffffffffffff1673ffffffffffffffffffffffffffffffffffffffff163373ffffffffffffffffffffffffffffffffffffffff16145b1515612d6257600080fd5b612dec612da083838080601f016020809104026020016040519081016040528093929190818152602001838380828437820191505050505050612e54565b612dde6040805190810160405280600181526020017f5e00000000000000000000000000000000000000000000000000000000000000815250612e54565b612e8290919063ffffffff16565b600a600085600019166000191681526020019081526020016000209080519060200190612e1a92919061307d565b50505050565b60008115612e315760019050612e36565b600090505b919050565b6000828211151515612e4957fe5b818303905092915050565b612e5c6130fd565b600060208301905060408051908101604052808451815260200182815250915050919050565b606080600083600001518560000151016040519080825280601f01601f191660200182016040528015612ec45781602001602082028038833980820191505090505b509150602082019050612ee08186602001518760000151612f22565b612ef98560000151820185602001518660000151612f22565b819250505092915050565b6000808284019050838110151515612f1857fe5b8091505092915050565b60005b602082101515612f4a5782518452602084019350602083019250602082039150612f25565b6001826020036101000a0390508019835116818551168181178652505050505050565b50805460018160011615610100020316600290046000825580601f10612f935750612fb2565b601f016020900490600052602060002090810190612fb19190613117565b5b50565b50805460018160011615610100020316600290046000825580601f10612fdb5750612ffa565b601f016020900490600052602060002090810190612ff99190613117565b5b50565b828054600181600116156101000203166002900490600052602060002090601f016020900481019282601f1061303e57803560ff191683800117855561306c565b8280016001018555821561306c579182015b8281111561306b578235825591602001919060010190613050565b5b5090506130799190613117565b5090565b828054600181600116156101000203166002900490600052602060002090601f016020900481019282601f106130be57805160ff19168380011785556130ec565b828001600101855582156130ec579182015b828111156130eb5782518255916020019190600101906130d0565b5b5090506130f99190613117565b5090565b604080519081016040528060008152602001600081525090565b61313991905b8082111561313557600081600090555060010161311d565b5090565b905600a165627a7a723058202de39d3a54f4e6a72ee5f7487c17c39dd3f2c673ae3d0d9b0ce3eedeb704a16d0029",
  "source": "pragma solidity 0.4.23;\n\nimport './zeppelin/lifecycle/Destructible.sol';\nimport \"./zeppelin/math/SafeMath.sol\";\nimport \"./lib/arachnid/solidity-stringutils/strings.sol\";\n\ncontract DB is Destructible {\n  using strings for *;\n\n  address[] public permittedContractsAddresses;\n  mapping(address => bool) public permissionStatusForContract;\n\n  // DB implemented as bytes32 mappings\n  mapping(bytes32 => address) AddressDataStore;\n  mapping(bytes32 => bool) BoolDataStore;\n  mapping(bytes32 => bytes) BytesDataStore;\n  mapping(bytes32 => bytes32) Bytes32DataStore;\n  mapping(bytes32 => int) IntDataStore;\n  mapping(bytes32 => uint) UIntDataStore;\n  mapping(bytes32 => uint8) UInt8DataStore;\n  mapping(bytes32 => string) StringDataStore;\n\n  modifier onlyPermittedContractOrOwner {\n    require(permissionStatusForContract[msg.sender] || msg.sender == owner);\n    _;\n  }\n\n  function DB () public {\n\n  }\n\n  // AddressDataStore\n  function getAddressValue (bytes32 recordFieldName) public view returns (address) {\n    return AddressDataStore[recordFieldName];\n  }\n\n  function setAddressValue (bytes32 recordFieldName, address value) external\n    onlyPermittedContractOrOwner\n  {\n    AddressDataStore[recordFieldName] = value;\n  }\n\n  function deleteAddressValue (bytes32 recordFieldName) external\n    onlyPermittedContractOrOwner\n  {\n    delete AddressDataStore[recordFieldName];\n  }\n\n  // BoolDataStore\n  function getBoolValue (bytes32 recordFieldName) public view returns (bool) {\n    return BoolDataStore[recordFieldName];\n  }\n\n  function setBoolValue (bytes32 recordFieldName, bool value) external\n    onlyPermittedContractOrOwner\n  {\n    BoolDataStore[recordFieldName] = value;\n  }\n\n  function deleteBoolValue (bytes32 recordFieldName) external\n    onlyPermittedContractOrOwner\n  {\n    delete BoolDataStore[recordFieldName];\n  }\n\n  // BytesDataStore\n  function getBytesValue (bytes32 recordFieldName) public view returns (bytes) {\n    return BytesDataStore[recordFieldName];\n  }\n\n  function setBytesValue (bytes32 recordFieldName, bytes value) external\n    onlyPermittedContractOrOwner\n  {\n    BytesDataStore[recordFieldName] = value;\n  }\n\n  function deleteBytesValue (bytes32 recordFieldName) external\n    onlyPermittedContractOrOwner\n  {\n    delete BytesDataStore[recordFieldName];\n  }\n\n  // Bytes32DataStore\n  function getBytes32Value (bytes32 recordFieldName) public view returns (bytes32) {\n    return Bytes32DataStore[recordFieldName];\n  }\n\n  function setBytes32Value (bytes32 recordFieldName, bytes32 value) external\n    onlyPermittedContractOrOwner\n  {\n    Bytes32DataStore[recordFieldName] = value;\n  }\n\n  function deleteBytes32Value (bytes32 recordFieldName) external\n    onlyPermittedContractOrOwner\n  {\n    delete Bytes32DataStore[recordFieldName];\n  }\n\n  // IntDataStore\n  function getIntValue (bytes32 recordFieldName) public view returns (int) {\n    return IntDataStore[recordFieldName];\n  }\n\n  function setIntValue (bytes32 recordFieldName, int value) external\n    onlyPermittedContractOrOwner\n  {\n    IntDataStore[recordFieldName] = value;\n  }\n\n  function deleteIntValue (bytes32 recordFieldName) external\n    onlyPermittedContractOrOwner\n  {\n    delete IntDataStore[recordFieldName];\n  }\n\n  // UIntDataStore\n  function getUIntValue (bytes32 recordFieldName) public view returns (uint) {\n    return UIntDataStore[recordFieldName];\n  }\n\n  function setUIntValue (bytes32 recordFieldName, uint value) public\n    onlyPermittedContractOrOwner\n  {\n    UIntDataStore[recordFieldName] = value;\n  }\n\n  function addUIntValue (bytes32 recordFieldName, uint value) external\n    onlyPermittedContractOrOwner\n  {\n    UIntDataStore[recordFieldName] = SafeMath.add(UIntDataStore[recordFieldName], value);\n  }\n\n  function subUIntValue (bytes32 recordFieldName, uint value) external\n    onlyPermittedContractOrOwner\n  {\n    UIntDataStore[recordFieldName] = SafeMath.sub(UIntDataStore[recordFieldName], value);\n  }\n\n  function deleteUIntValue (bytes32 recordFieldName) external\n    onlyPermittedContractOrOwner\n  {\n    delete UIntDataStore[recordFieldName];\n  }\n\n  // UInt8DataStore\n  function getUInt8Value (bytes32 recordFieldName) public view returns (uint8){\n    return UInt8DataStore[recordFieldName];\n  }\n\n  function setUInt8Value (bytes32 recordFieldName, uint8 value) public\n    onlyPermittedContractOrOwner\n  {\n    UInt8DataStore[recordFieldName] = value;\n  }\n\n  function deleteUInt8Value (bytes32 recordFieldName) external\n    onlyPermittedContractOrOwner\n  {\n    delete UInt8DataStore[recordFieldName];\n  }\n\n  // StringDataStore\n  function getStringValue (bytes32 recordFieldName) public view returns (string) {\n    return StringDataStore[recordFieldName];\n  }\n\n  function setStringValue (bytes32 recordFieldName, string value) external\n    onlyPermittedContractOrOwner\n  {\n    StringDataStore[recordFieldName] = \"^\".toSlice().concat(value.toSlice());\n  }\n\n  function deleteStringValue (bytes32 recordFieldName) external\n    onlyPermittedContractOrOwner\n  {\n    delete StringDataStore[recordFieldName];\n  }\n\n  // DB Utilities\n\n  function addPermittedContract (address contractAddress) external\n  onlyOwner {\n    permissionStatusForContract[contractAddress] = true;\n    permittedContractsAddresses.push(contractAddress);\n  }\n\n  function addPermittedContracts (address[] addresses) external\n  onlyOwner {\n    for (uint i = 0; i < addresses.length; i++) {\n      permissionStatusForContract[addresses[i]] = true;\n      permittedContractsAddresses.push(addresses[i]);\n    }\n  }\n\n  function removePermittedContract (address addresses) external\n  onlyOwner {\n    permissionStatusForContract[addresses] = false;\n  }\n\n  function removePermittedContracts (address[] addresses) external\n  onlyOwner {\n    for (uint i = 0; i < addresses.length; i++) {\n      permissionStatusForContract[addresses[i]] = false;\n    }\n  }\n\n  function permittedContractsCount () public view returns (uint count) {\n    for (uint i = 0; i < permittedContractsAddresses.length; i++) {\n      if (permissionStatusForContract[permittedContractsAddresses[i]]) {\n        count++;\n      }\n    }\n\n    return count;\n  }\n\n  function getPermittedContracts () external constant returns (address[] addresses) {\n    addresses = new address[](permittedContractsCount());\n    for (uint i = 0; i < permittedContractsAddresses.length; i++) {\n      if (permissionStatusForContract[permittedContractsAddresses[i]]) {\n        addresses[i] = permittedContractsAddresses[i];\n      }\n    }\n\n    return addresses;\n  }\n\n  // Fetch Data\n  function getObjectData (bytes32[] recordFieldNames, uint8[] recordFieldTypes)\n    external view returns\n  (\n    uint[] items,\n    string strings\n  )\n  {\n    uint countOfIntegerTypes = getCountOfIntegerTypes(recordFieldTypes);\n    /*\n      objectsCount gives the number of entities we're basing the search on. Search may be needed for several entities for which recordFieldTypes[] is the same for all of them. E.g. get the name, email, gender, and state of 5 people:\n      recordFieldNames: [\n        keccak256(\"user/name\", \"0x9838cdba...\"), keccak256(\"user/email\", \"0x9838cdba...\"), keccak256(\"user/gender\", \"0x9838cdba...\"), keccak256(\"user/state\", \"0x9838cdba...\"),\n\n        keccak256(\"user/name\", \"0xabc63533...\"), keccak256(\"user/email\", \"0xabc63533...\"), keccak256(\"user/gender\", \"0xabc63533...\"), keccak256(\"user/state\", \"0xabc63533...\"),\n\n        keccak256(\"user/name\", \"0x08253befd...\"), keccak256(\"user/email\", \"0x08253befd...\"), keccak256(\"user/gender\", \"0x08253befd...\"), keccak256(\"user/state\", \"0x08253befd...\"),\n\n        keccak256(\"user/name\", \"0x0b6354a...\"), keccak256(\"user/email\", \"0x0b6354a...\"), keccak256(\"user/gender\", \"0x0b6354a...\"), keccak256(\"user/state\", \"0x0b6354a...\"),\n\n        keccak256(\"user/name\", \"0x07352bac36...\"), keccak256(\"user/email\", \"0x07352bac36...\"), keccak256(\"user/gender\", \"0x07352bac36...\"), keccak256(\"user/state\", \"0x07352bac36...\")\n\n      ],\n      recordFieldTypes: [7, 7, 5, 3]\n      In this case, recordFieldNames.length = 20, recordFieldTypes.length = 4 => objectsCount = 5 [the search is being done for 5 entities]\n    */\n    uint objectsCount = recordFieldNames.length / recordFieldTypes.length;\n    items = new uint[](objectsCount * countOfIntegerTypes);\n    uint k;\n    for (uint i = 0; i < objectsCount; i++) {\n      for (uint j = 0; j < recordFieldTypes.length; j++) {\n        uint r_i = (i * recordFieldTypes.length) + j;\n        if (recordFieldTypes[j] == 7) {\n          strings = strings.toSlice().concat(getStringValue(recordFieldNames[r_i]).toSlice());\n          strings = strings.toSlice().concat(\"666--ETH-VUE--666\".toSlice());\n        } else {\n          items[k] = getCorrespondingIntegerValue(recordFieldNames[r_i], recordFieldTypes[j]);\n          k++;\n        }\n      }\n      strings = strings.toSlice().concat(\"666--ETH-VUE-LIST--666\".toSlice());\n    }\n\n    return (items, strings);\n  }\n\n  function getCountOfIntegerTypes (uint8[] recordFieldTypes) public pure returns (uint count) {\n    count = 0;\n    for (uint i = 0; i < recordFieldTypes.length ; i++) {\n      if (recordFieldTypes[i] != 7) { // recordFieldType 7 is for strings\n        count += 1;\n      }\n    }\n\n    return count;\n  }\n\n  function getCorrespondingIntegerValue (bytes32 recordFieldName, uint8 uintType) public view returns (uint) {\n    // recordFieldTypes: 1 => bool, 2 => uint8, 3 => uint, 4 => address, 5 => bytes32, 7 => string\n    if (uintType == 1) {\n      return boolToUInt(getBoolValue(recordFieldName));\n    } else if (uintType == 2) {\n      return uint(getUInt8Value(recordFieldName));\n    } else if (uintType == 3) {\n      return getUIntValue(recordFieldName);\n    } else if (uintType == 4) {\n      return uint(bytes32(getAddressValue(recordFieldName)));\n    } else if (uintType == 5) {\n      return uint(getBytes32Value(recordFieldName));\n    } else {\n      return 0;\n    }\n  }\n\n  function boolToUInt (bool logicEntry) public pure returns (uint) {\n    if (logicEntry) {\n      return 1;\n    } else {\n      return 0;\n    }\n  }\n}\n",
  "sourcePath": "/home/james/Bloxberg/BloxbergApp/contracts/DB.sol",
  "compiler": {
    "name": "solc",
    "version": "0.4.23+commit.124ca40d.Emscripten.clang"
  },
  "schemaVersion": "2.0.0",
  "updatedAt": "2019-01-29T11:07:32.264Z"
}