{
  "contractName": "ipfsHash",
  "abi": [
    {
      "anonymous": false,
      "inputs": [
        {
          "indexed": false,
          "name": "ID",
          "type": "bytes32"
        },
        {
          "indexed": false,
          "name": "returnValue",
          "type": "bool"
        }
      ],
      "name": "createDataEvent",
      "type": "event"
    },
    {
      "constant": false,
      "inputs": [
        {
          "name": "StringCheckSum",
          "type": "string"
        },
        {
          "name": "DataExists",
          "type": "bool"
        },
        {
          "name": "researchauthor",
          "type": "string"
        },
        {
          "name": "timestamp",
          "type": "string"
        }
      ],
      "name": "createData",
      "outputs": [
        {
          "name": "researchID",
          "type": "bytes32"
        }
      ],
      "payable": true,
      "stateMutability": "payable",
      "type": "function"
    },
    {
      "constant": true,
      "inputs": [],
      "name": "getResearchDataIdentifiers",
      "outputs": [
        {
          "name": "",
          "type": "bytes32[]"
        }
      ],
      "payable": false,
      "stateMutability": "view",
      "type": "function"
    },
    {
      "constant": true,
      "inputs": [
        {
          "name": "researchdataID",
          "type": "bytes32"
        }
      ],
      "name": "retrieveResearchData",
      "outputs": [
        {
          "name": "",
          "type": "string"
        },
        {
          "name": "",
          "type": "string"
        },
        {
          "name": "",
          "type": "bytes32"
        },
        {
          "name": "",
          "type": "string"
        },
        {
          "name": "",
          "type": "bool"
        }
      ],
      "payable": false,
      "stateMutability": "view",
      "type": "function"
    },
    {
      "constant": false,
      "inputs": [
        {
          "name": "x",
          "type": "string"
        }
      ],
      "name": "sendHash",
      "outputs": [],
      "payable": false,
      "stateMutability": "nonpayable",
      "type": "function"
    },
    {
      "constant": true,
      "inputs": [],
      "name": "getHash",
      "outputs": [
        {
          "name": "x",
          "type": "string"
        }
      ],
      "payable": false,
      "stateMutability": "view",
      "type": "function"
    }
  ],
  "bytecode": "0x608060405234801561001057600080fd5b50610b54806100206000396000f30060806040526004361061006d576000357c0100000000000000000000000000000000000000000000000000000000900463ffffffff1680635d7fc16d14610072578063864d72f21461018257806397b4f97c1461031e578063d13319c41461038a578063dfb299351461041a575b600080fd5b610164600480360381019080803590602001908201803590602001908080601f0160208091040260200160405190810160405280939291908181526020018383808284378201915050505050509192919290803515159060200190929190803590602001908201803590602001908080601f0160208091040260200160405190810160405280939291908181526020018383808284378201915050505050509192919290803590602001908201803590602001908080601f0160208091040260200160405190810160405280939291908181526020018383808284378201915050505050509192919290505050610483565b60405180826000191660001916815260200191505060405180910390f35b34801561018e57600080fd5b506101b160048036038101908080356000191690602001909291905050506106d6565b60405180806020018060200186600019166000191681526020018060200185151515158152602001848103845289818151815260200191508051906020019080838360005b838110156102115780820151818401526020810190506101f6565b50505050905090810190601f16801561023e5780820380516001836020036101000a031916815260200191505b50848103835288818151815260200191508051906020019080838360005b8381101561027757808201518184015260208101905061025c565b50505050905090810190601f1680156102a45780820380516001836020036101000a031916815260200191505b50848103825286818151815260200191508051906020019080838360005b838110156102dd5780820151818401526020810190506102c2565b50505050905090810190601f16801561030a5780820380516001836020036101000a031916815260200191505b509850505050505050505060405180910390f35b34801561032a57600080fd5b5061033361096b565b6040518080602001828103825283818151815260200191508051906020019060200280838360005b8381101561037657808201518184015260208101905061035b565b505050509050019250505060405180910390f35b34801561039657600080fd5b5061039f6109c7565b6040518080602001828103825283818151815260200191508051906020019080838360005b838110156103df5780820151818401526020810190506103c4565b50505050905090810190601f16801561040c5780820380516001836020036101000a031916815260200191505b509250505060405180910390f35b34801561042657600080fd5b50610481600480360381019080803590602001908201803590602001908080601f0160208091040260200160405190810160405280939291908181526020018383808284378201915050505050509192919290505050610a69565b005b60008085836040518083805190602001908083835b6020831015156104bd5780518252602082019150602081019050602083039250610498565b6001836020036101000a03801982511681845116808217855250505050505090500182805190602001908083835b60208310151561051057805182526020820191506020810190506020830392506104eb565b6001836020036101000a03801982511681845116808217855250505050505090500192505050604051809103902090506001819080600181540180825580915050906001820390600052602060002001600090919290919091509060001916905550600080815480929190600101919050556000819055508560036000836000191660001916815260200190815260200160002060000190805190602001906105ba929190610a83565b50806003600083600019166000191681526020019081526020016000206002018160001916905550836003600083600019166000191681526020019081526020016000206001019080519060200190610614929190610a83565b50826003600083600019166000191681526020019081526020016000206003019080519060200190610647929190610a83565b508460036000836000191660001916815260200190815260200160002060040160006101000a81548160ff0219169083151502179055507f1031f56f812c8a9ce241b0794ce9b5ed111824465b8534628b8e26b005bc77ae816001604051808360001916600019168152602001821515151581526020019250505060405180910390a180915050949350505050565b60608060006060600060036000876000191660001916815260200190815260200160002060000160036000886000191660001916815260200190815260200160002060010160036000896000191660001916815260200190815260200160002060020154600360008a60001916600019168152602001908152602001600020600301600360008b6000191660001916815260200190815260200160002060040160009054906101000a900460ff16848054600181600116156101000203166002900480601f0160208091040260200160405190810160405280929190818152602001828054600181600116156101000203166002900480156108195780601f106107ee57610100808354040283529160200191610819565b820191906000526020600020905b8154815290600101906020018083116107fc57829003601f168201915b50505050509450838054600181600116156101000203166002900480601f0160208091040260200160405190810160405280929190818152602001828054600181600116156101000203166002900480156108b55780601f1061088a576101008083540402835291602001916108b5565b820191906000526020600020905b81548152906001019060200180831161089857829003601f168201915b50505050509350818054600181600116156101000203166002900480601f0160208091040260200160405190810160405280929190818152602001828054600181600116156101000203166002900480156109515780601f1061092657610100808354040283529160200191610951565b820191906000526020600020905b81548152906001019060200180831161093457829003601f168201915b505050505091509450945094509450945091939590929450565b606060018054806020026020016040519081016040528092919081815260200182805480156109bd57602002820191906000526020600020905b815460001916815260200190600101908083116109a5575b5050505050905090565b606060048054600181600116156101000203166002900480601f016020809104026020016040519081016040528092919081815260200182805460018160011615610100020316600290048015610a5f5780601f10610a3457610100808354040283529160200191610a5f565b820191906000526020600020905b815481529060010190602001808311610a4257829003601f168201915b5050505050905090565b8060049080519060200190610a7f929190610a83565b5050565b828054600181600116156101000203166002900490600052602060002090601f016020900481019282601f10610ac457805160ff1916838001178555610af2565b82800160010185558215610af2579182015b82811115610af1578251825591602001919060010190610ad6565b5b509050610aff9190610b03565b5090565b610b2591905b80821115610b21576000816000905550600101610b09565b5090565b905600a165627a7a72305820754aa2e162f1a137c3524add09e4dfd42711edcbc6f17b587bac926d33d027ff0029",
  "source": "pragma solidity ^0.4.4;\n\nimport \"./zeppelin/math/SafeMath.sol\";\n\ncontract ipfsHash {\n\n  struct Researcher{\n   string institution;\n   string name;\n }\n\n// ============================ Master Research Data =====================\n\nuint numResearchData;\n    struct ResearchData {\n    string checksum;\n    string researchauthor;\n    //string txhash;\n    bytes32 researchID;\n    string timestamp;\n    bool checksumexists;\n   //mapping (string => Researcher) researchers;\n    }\n    bytes32[] researchDataIdentifiers;\n    bytes32[] txIDs;\n    mapping (bytes32 => ResearchData) researchdatas;\n \n event createDataEvent(bytes32 ID, bool returnValue);\n \n function createData(string StringCheckSum, bool DataExists, string researchauthor, string timestamp) \n public\n payable \n returns(bytes32 researchID){\n    //generates unique dataID using researchtitle and checksum of data\n    bytes32 dataID = keccak256(StringCheckSum, timestamp);\n      researchDataIdentifiers.push(dataID);\n      numResearchData = numResearchData++;\n      researchdatas[dataID].checksum = StringCheckSum;\n      researchdatas[dataID].researchID = dataID;\n      researchdatas[dataID].researchauthor = researchauthor;\n      researchdatas[dataID].timestamp = timestamp;\n      researchdatas[dataID].checksumexists = DataExists;\n      createDataEvent(dataID, true);\n    return dataID;\n    }\n\nfunction getResearchDataIdentifiers()\npublic\nview\nreturns (bytes32[]) {\n  return researchDataIdentifiers;\n}\n//instead of input researchtitle, we could use username of user.\nfunction retrieveResearchData(bytes32 researchdataID)\npublic \nview\n//Re-add another string if txhash is required\nreturns(string, string, bytes32, string, bool) {\nreturn(\n    researchdatas[researchdataID].checksum,\n    researchdatas[researchdataID].researchauthor,\n    //researchdatas[dataID].txhash,\n    researchdatas[researchdataID].researchID,\n    researchdatas[researchdataID].timestamp,\n    researchdatas[researchdataID].checksumexists\n    );\n}\n\n\n// ============================ IPFS Hash Storage =========================\n \n string ipfsHash;\n \n function sendHash(string x) public {\n   ipfsHash = x;\n }\n\n function getHash() public view returns (string x) {\n   return ipfsHash;\n }\n \n}\n",
  "sourcePath": "/home/james/Bloxberg/BloxbergApp/contracts/ipfsHash.sol",
  "compiler": {
    "name": "solc",
    "version": "0.4.23+commit.124ca40d.Emscripten.clang"
  },
  "schemaVersion": "2.0.0",
  "updatedAt": "2019-01-10T09:18:04.911Z"
}